:020000021000EC
:1080000000400020FD030200390402003B0402008E
:108010000000000000000000000000000000000060
:108020000000000000000000000000003D0402000D
:1080300000000000000000003F04020041040200B4
:1080400043040200C1AE0100B50A0200430402006D
:108050004304020000000000750402004304020013
:1080600043040200910C02003D0902004304020097
:1080700043040200430402004304020043040200DC
:1080800043040200430402004304020043040200CC
:108090004304020075F3010001F5010043040200EE
:1080A000430402004304020000000000000000003E
:1080B00000000000000000000000000000000000C0
:1080C00010B5064C2378002B07D1054B002B02D0AE
:1080D000044800E000BF0123237010BDD021002020
:1080E00000000000AC7A0200044B10B5002B03D056
:1080F0000349044800E000BF10BDC0460000000076
:10810000D4210020AC7A0200164B002B00D1144B76
:108110009D46402292029A1A924600218B460F46B3
:108120001348144A121A0EF02BFB0F4B002B00D0F1
:1081300098470E4B002B00D09847002000210400E8
:108140000D000D48002802D00C4800E000BF0AF0E6
:10815000E7FC200029000EF0D6F80AF0CBFCC04660
:1081600000000800004000200000000000000000A7
:10817000C8210020E02900200000000000000000CD
:1081800010B50400034B036040300BF0E3F920000E
:1081900010BDC046A8690200F0B589B002900391F5
:1081A00007A853490492059302F0D2FF07A906A835
:1081B00001F0C8F807A80BF05DFB4E4907A801F0D5
:1081C000B1F807A906A80BF033FA040007A80BF0D2
:1081D000C1F9002C15D0484C07A8210001F0A2F8E5
:1081E000C82207A95200454802F036FA07A80BF04A
:1081F000B1F9FA20800000F063FE210040480EF043
:10820000F5FA404907A801F08DF807A906A80BF078
:108210000FFA040007A80BF09DF9002C15D03A4C7A
:1082200007A8210001F07EF8C82207A952003348B0
:1082300002F012FA07A80BF08DF9FA20800000F086
:108240003FFE21002E480EF0D1FA304907A801F078
:1082500069F807A906A80BF0EBF9019007A80BF045
:1082600079F9019B002B3ED024480CF048F82849AE
:1082700023480AF0C7FC00270600002E24D0002463
:10828000244D3000651929680EF0BEFA002810D17F
:10829000FA20800000F014FE696807A801F042F897
:1082A000782207A9154802F067FA07A80BF052F9DF
:1082B000019F902308345B009C42E1D114490020C7
:1082C0000AF0A0FC0600D8E7002F09D1FF233A00EE
:1082D0000421114801F0D6F8FA20C00000F0F0FDAA
:1082E0000022074B1A7006A80BF034F909B0F0BD54
:1082F000782500205C790200B77402000423002076
:108300000E290020207402007574020022740200FD
:108310007C7A02000420002078230020F0B585B08C
:108320001F000AAB1B880600029115000393002F63
:108330001BD028200EF0D5F96B4604001989039B49
:10834000AAB200933B000BF0A5F8336821005B68EC
:1083500030009847002806D020000BF0B1F820002C
:108360000EF0B4F9024805B0F0BD0248FBE7C04684
:1083700016FCFFFF17FCFFFFF0B54E4887B000F07A
:10838000BDF94D4802F0E2FD1023012200931D21AA
:108390004A4B4B48C826FFF7C1FF01277600102340
:1083A0003A0000931D21454B4548FFF7B7FF00F009
:1083B00075FF00240290039142480BF099FB0028BE
:1083C0004ED100F06BFF404D002C27D0029B039C48
:1083D000C01AA1413D4C002944D1F423FF339842F7
:1083E00040D83B4905A800F09DFF05A932002000B8
:1083F00002F032F905A80BF0ADF8364905A800F0F7
:1084000091FF05A928000CF067FA05A80BF0A2F867
:10841000642000F055FD20000BF071FF290005A835
:1084200002F096FE05A904A800F08CFF05A80BF049
:1084300021FA04A905A80BF0E4F8244C320005A9A0
:10844000200002F009F905A80BF084F8642000F080
:1084500037FD20000BF053FF04A80BF07BF89EE7DC
:108460003C00A9E701231C4A5B42801859410029BE
:1084700011D1F9235B0098420DD8184905A800F0E6
:1084800051FF05A93200200002F0E6F805A80BF024
:1084900061F81349B2E7134905A800F043FF05A9A5
:1084A0003200200002F0D8F805A80BF053F80E496E
:1084B000A4E7C04614220020602500209981010015
:1084C000E4220020EC210020782500200423002055
:1084D000B77402005C7902000BFEFFFF75740200A6
:1084E000207402000F7A02002274020037B50C4C8F
:1084F000200000F04BF80B4D0B492A0020000EF035
:10850000E9F80023094C009301331A0011212000DF
:1085100001F048FB2A00064920000EF0DBF837BDC9
:10852000142200200020002035850100EC210020CD
:108530008D9B0100CA23144A9B0010B5C2501C3306
:108540000400C0180BF006F8D0239B00E0180BF0D5
:1085500001F820009130FF3001F018FB2000693055
:10856000FF3001F013FB2000F03001F091FE2000FD
:10857000D03002F095FA2000643007F0ABFE201DE9
:10858000FFF7FEFD200010BD346E02001423F0B58D
:10859000040093B0009319221821043002F01EFE4B
:1085A0002200250026006432B435132110001092F9
:1085B000B83607F09BFE28000CF009FA00221E21B5
:1085C00030000BF0A1FE2000D03002F089FA22002A
:1085D000F03211920621464A119801F07DFE2000EA
:1085E0000027012369301A0000971121FF3001F0A4
:1085F000D9FA200091300097012302221A21FF307E
:1086000001F0D0FA2000B9301A2301210222FF30F4
:1086100002F022FB300001F0D1F8E4225200A05019
:10862000300001F019FBE6235B00E0500100E4227A
:1086300020005200D130119BA2580095FF3001F06C
:108640005BFD2000E13029001C22FF3002F05EFFBC
:10865000192320000F93013B0E93013B0D93013B27
:108660000C93013B0B93013B0A93013B0993013BA4
:108670000893013B0793013B0693013B0593013BA4
:108680000493013B0393013B0293013B0193F930B7
:10869000013B082200930721013BFF300BF055FE00
:1086A000CA239B00E018290003F042FFD3239B005C
:1086B000E0181D2102F0A0FBDD239B00E75010987D
:1086C000277003210DF042FD2300220020000949FC
:1086D0009C33A0321C6011605760074A80305A6199
:1086E0000221012207F078FF200013B0F0BDC04640
:1086F000B069020099310200833102000123F0B514
:10870000067891B004001E4060D10300D0331800F9
:10871000039300F0B7FA00F0DDF928200DF0E1FF37
:10872000050010300AF0B7FF664B18202B600DF0E3
:10873000D8FF0700644B0460082231000C300E9310
:108740000F960EF01DF80EA9381D08220DF0FCFF43
:108750005E4BAF607B611223EE60AB802E626E6277
:108760002900039802F030F9002805D028000AF00B
:10877000A7FE28000DF0AAFF0123227854491343D5
:1087800023702300B433180004930CF026F95149E8
:10879000029004980CF021F900270690642000F064
:1087A0008FFB3D003E0023006933FF331800059323
:1087B0000BF09EF900280BD1029B002B11D1069BD8
:1087C000002B0ED14449454800F05AFC11B0F0BDD1
:1087D00020009130FF300BF08BF90028ECD0182EE0
:1087E000EADC2000653029B23AB2FF23FF300135C0
:1087F00000F048FEEDB2322000F062FB0136052D9C
:1088000002D100250137FFB2029B192E06D0002BA2
:10881000C9D02F49049802F00DFE01E0002BF8D1D9
:1088200002980DF053FF06980DF050FF2A492C488E
:1088300000F026FCCA239B00E3180793DD239B006E
:10884000E3580893002B36D100F058F801000AA82D
:1088500000F068FD0AF025FD08900AF022FD6B4645
:108860000990198C0CA80AF092FE099B0DA8190C0E
:108870000AF08DFE0DAA0CA90BA80AF0E9FE0DA8BE
:108880000AF068FE0CA80AF065FE01230BAA0AA9EB
:1088900000930798039B03F0A1FE0BA80AF05AFE71
:1088A0000AA80AF057FECC239B00E3580893DD2367
:1088B000089A9B00E2502100059AF031079804F0D5
:1088C00087F870E7FD0300000B320200CB31020095
:1088D000F1740200FC740200002000200800002057
:1088E000001C0020BFF34F8F024B034ADA60BFF336
:1088F0004F8FFEE700ED00E00400FA05F0B58DB003
:1089000005AF1922154938000DF01EFF0022144B47
:1089100005245A7180225205566E012225000194C9
:10892000029203930199300008F042FB080002997B
:1089300008F0B8FA019B03996B430193029B361A26
:108940006B430293631E2C1B6C433C19225C1C1E60
:10895000CA54E7D108000DB0F0BDC0460C75020046
:108960000F290020F0B597B018220021060010A8AA
:108970000DF006FF132110A80DF030FD032110A803
:108980000DF0C2FD4C4B1B68002B00D10133DBB254
:1089900002934A4A012300210BA807F08BFF484BA2
:1089A0009E4200D9002672B6464B64211D68464B94
:1089B00030000793052408F0FFFA60435030281870
:1089C00008900A21300008F0F7FA0A2108F0DAFBD3
:1089D000614350316918099130000A2108F0D2FB37
:1089E000802361430024503169189B010A9101934F
:1089F000029B002B5DD0002500272E1F07AB9B1983
:108A00000593032C03D1802300249B01019307AB22
:108A10005B592E4A03936300D31804930023190073
:108A200006205843049A16187678B4466246039E88
:108A3000B25C10269446049A105C624606411642C7
:108A400002D00120984001430133092BE8D1C943EA
:108A50001F4B059A090119401268039B934225D1C7
:108A6000312F23DC00210BA80DF007FEFA23159A05
:108A70001199DB00106801421BD0013B002BF9D19A
:108A8000019B01345B000193FA230137E4B25B00E0
:108A90009F42B6D10435102DAED1074B1B68002B79
:108AA000A6D0029F013FFBB20293A1E7019B1943AD
:108AB000D9E7FFF717FFC04690250020F0FF000020
:108AC000E7030000242100205B75020025750200E9
:108AD000F01F0000F8B50023124C23600AF0D3FB0E
:108AE000002808D0042120000AF0C9FB002801D08A
:108AF0000D4B2360F8BD0122A12704250B4B0C4927
:108B00001A602268FF0048604E68002EFCD0DE59D3
:108B10001202013D3243002DF5D1226001225A603C
:108B2000E8E7C0468C250020ED5EBC0B00D000407D
:108B3000FCD000400B4B70B51C68002C10D0656D4C
:108B400000F0ACFBA36C002901D1834206D82000C1
:108B50000AF0CCFB044920000AF0B6FB2C00ECE73D
:108B600070BDC04698250020B8250020F0B593B010
:108B700007932A4B04AC1E68049005910692002EC0
:108B80004AD0274B258867881C6800230293002C55
:108B90002ED0636D23480393A36C9AB2A36C1B0C75
:108BA00099B2854214D12048824211D1002B01D0C4
:108BB000B9420BD1029B002B08D120000AF096FB92
:108BC0001A4920000AF080FB01230293039CDEE790
:108BD000002A01D09542F9D1002B01D0B942F5D13C
:108BE00020000AF083FB114920000AF06DFBEDE73D
:108BF0000F4BEB18012B0FD910233A0000932900DB
:108C00000C4B08A80AF046FC336808A99B683000A2
:108C1000984708A80AF054FC13B0F0BD9425002032
:108C2000C4250020FE030000FF030000B82500203B
:108C300002FCFFFF6D8B010010B572B60B4B1C6878
:108C4000002C08D020000AF051FB0023E364084BFD
:108C50002000E36310BD62B65C200DF042FD5C2293
:108C6000002104000DF08CFDEFE7C046BC2500207C
:108C700000400020024B1878012318407047C0467E
:108C800015290020F7B50600FFF7F4FF051E33D1C4
:108C90001A4C2660FFF7D0FF194B1A4918600AF0EA
:108CA00013FBFFF7C9FF184B1860184B4363184BB1
:108CB0008363206800280ED0C027164E2A00330098
:108CC00015490097FFF72AFB009733002A00134944
:108CD0002068FFF723FB0C200DF003FD00238380A9
:108CE00083710F4B03600F4B836000F0EFFA012399
:108CF0000D4A11780B431370F7BDC0469425002030
:108D0000C8250020B8250020C0250020FC3F0020F9
:108D1000B33302006D8B0100FF030000FE0300006F
:108D2000D0690200358B010015290020F7B5060037
:108D30000D0017000193002802D100242000FEBD81
:108D40000029FAD0FFF778FF041EF6D0074B019AEE
:108D50004363066045608760054B002A00D0054BE1
:108D6000A363054920000AF0AFFAE7E7FC3F0020C3
:108D70007D3302009B330200B8250020024B1868A7
:108D8000434258417047C046B8250020002310B523
:108D900004499C006258002A01D00133F9E7605071
:108DA000100010BDA0250020002310B5044A990032
:108DB0008C58844201D00133F9E70020885010BD5F
:108DC000A025002010B50024084BA200D058002890
:108DD00002D003685B6898470134062CF4D1044B39
:108DE0001B68002B00D120BF10BDC046A02500206D
:108DF000B8250020F8B5FFF73DFF00281CD02A4D0C
:108E00002C68E36CDA0718D502273B43E364274B51
:108E10001E680423F26C30001343F364636BF36346
:108E20000AF08AFA3000716C04F0C7F92868C36C44
:108E30003B4201D004F0FBF9F8BD1D4F1D4E3A68CE
:108E40003168002A1ED129602A68914208D11B0787
:108E500006D52C60FFF7B6FF3B68002BFAD02B60DD
:108E600029688C42E8D03368994214D1124B4B6385
:108E7000124B8B6320000AF05FFA2968626C4B6C1E
:108E800020000DE0206DB84203D1606D002800D0B5
:108E900002002A60D8E79C42ECD1002210004B6C03
:108EA00004F04AF9C8E7C046C82500209C250020E8
:108EB000B8250020C0250020FC3F0020B33302006D
:108EC00070B50500FFF7D6FE002803D128000DF08D
:108ED00014FB70BD0C4B1C68E36CDB0706D5FFF779
:108EE000ABFE0A4B1860002800D0040000F0D6F951
:108EF0002D18A56420000AF0F9F9054920000AF0B0
:108F0000E3F9FFF777FFE4E7C82500209C25002060
:108F100098250020F0B51E4B1E4F1C683B6885B09D
:108F200006000391002B30D0FFF7A4FE00282CD0C0
:108F3000E36CDB070ED5FFF77FFE174B051E1860AD
:108F400008D00AF0D3F9154928000AF0BDF92C0021
:108F5000FFF750FF039B20001B043343A3640AF078
:108F6000C5F920000E490AF0AFF90E4B0024F318A2
:108F7000012B07D9C0230093039A0B4B31003868AB
:108F8000FFF7CCF9200005B0F0BD084CFAE7C04669
:108F9000C8250020942500209C250020B82500200D
:108FA000C425002002FCFFFF6D8B010016FCFFFFB3
:108FB00010B5FFF75FFE002809D0054C20680AF0C5
:108FC00095F9044920680AF07FF9FFF713FF10BDF7
:108FD000C8250020BC250020F7B507000D0000289B
:108FE0002ED0FFF747FE00282CD00724164E3068FD
:108FF000C36C1C4007D0154A290038000AF08DF9CF
:1090000000242000FEBD04F0FAF802213268D36C7F
:109010001940019103D003218B43D364F1E701246C
:109020002343D3642800B8473268D36C1900A143A6
:10903000D164019C5B07E4D528000AF0A6F9E0E7BB
:10904000034CDEE7034CDCE7C82500208B3302002D
:1090500017FCFFFF16FCFFFF020010B5014B12CBFF
:1090600012C210BDCC250020034B1A68034B1A60B6
:109070007E225A607047C04624210020CC25002063
:1090800070B5114E3278022A1AD081421AD90C1AC0
:10909000072C17D90D00032305432B4012D172B6BC
:1090A0000A4DD2005051AA1851608022A40812061D
:1090B0001443046032780132327062B6180070BD19
:1090C0000348FCE70348FAE717290020D4250020CD
:1090D00013FCFFFF17FCFFFF70B5134C060023784D
:1090E000124D002B0CD1124912482B70FFF7C8FF0C
:1090F000114B984202D11E20FFF734FC012323704C
:1091000000242B78A34209DD0C49E300C918300084
:109110000AF055F9002805D10134F2E71420FFF7D1
:1091200021FC002070BDC046162900201729002010
:1091300000380020E029002017FCFFFFD425002084
:1091400070B5002819D0104B10491C7800239C42A0
:1091500016DDDA005558854210D28A1852688242CC
:109160000CD9041F2368002B02DC1E20FFF7FAFB3A
:10917000802322681B061343236070BD0133E6E79A
:109180001E20FFF7EFFBF8E717290020D425002069
:1091900070B5051E14DD0B4E0B4C3368002B02D04E
:1091A00020680DF035F8FA2120680024074B89006B
:1091B0008361C462694335600DF032F8200070BDF0
:1091C0000348FCE7E42500201426002079920100E2
:1091D00017FCFFFFF8B5114F06003D68002D0AD1BE
:1091E00030200DF07EFA040007F0DAF80C4BA56190
:1091F0002360E5623C600B4D2B68002B09D11020E9
:109200000DF06FFA04000DF057F820002C600DF0FF
:109210002DF83000FFF7BCFFF8BDC0461426002033
:10922000DC71020010260020014B18687047C04610
:10923000E425002070B50D4C2368002B03D00C4BA7
:109240001B68002B02D10620FFF7C4FF20680DF039
:1092500024F802000749C3170D684E68521973417C
:1092600020680A604B600DF01EF870BD10260020CB
:1092700014260020C821002010B5FFF7DBFF0024D2
:10928000054BA200D058002802D003681B689847FD
:1092900001340A2CF4D110BDE825002010B5FFF7E9
:1092A000C9FFFA22034B920018685968002307F09F
:1092B000A9FF10BDC821002010B5FFF7BBFF024B6E
:1092C0001868596810BDC046C82100200B4B10B566
:1092D0001B680400002B03D0094B1B68002B02D134
:1092E0000620FFF777FF0023064A990088580028D8
:1092F00001D00133F9E78C5010BDC0461026002084
:1093000014260020E8250020002310B5044A990007
:109310008C58844201D00133F9E70020885010BDF9
:10932000E825002010B50400002902D00B78002B9E
:1093300003D1034B2360200010BD0AF012F9FAE7B5
:10934000E0690200F8B5040008000D000AF0CEFA4A
:10935000002803D1134B23602000F8BD28000AF039
:10936000C5FA0530FFF7B8FE20600AF0C2FA2800FF
:109370000AF0BCFA23685880236828001E1D0AF0F2
:10938000B2FA070028000AF0B1FA390002003000F2
:109390000DF0DAF9280026680AF0A8FA002336183A
:1093A0003371D9E7E0690200F8B504000E0015003A
:1093B00000290AD00B78002B07D0002A05D008001E
:1093C00097B20DF02BFA874203D90B4B2360200094
:1093D000F8BD681DFFF780FE20600AF08AFA236856
:1093E0002A005F8023683100181D0DF0ADF9236855
:1093F0005D1900232B71EAE7E0690200014B03606D
:109400007047C046E069020010B50548054C206071
:109410000AF072FA044A054920000DF05BF910BD0C
:10942000E0690200182600200020002055350200C7
:10943000084B73B51C680500002C0AD00100266893
:109440000831082268460DF07FF90CCD3168200004
:10945000884773BD1C260020014B03607047C0463F
:10946000E869020010B50400002903D1044B036031
:10947000200010BD016008000AF03EFAF8E7C0467F
:10948000E869020030B500684488A1420CDA85889A
:10949000AA4209DA002907DB002A05DB54434018F9
:1094A00000198371002030BD0048FCE717FCFFFF66
:1094B000F0B5070085B00E001D00002921DD002A4F
:1094C0001FDD002B1DD00468638803938B4200DDF1
:1094D0000391A3880293934200DD02920023063495
:1094E0000193019B029A93420EDA29002000039A0D
:1094F0000DF02AF93B68AD195B88E418019B013334
:10950000EEE7024805B0F0BD0020FBE717FCFFFFC7
:10951000F8B504000D0016001F00002901DB002A29
:1095200002DA0E4B2360F8BD100048430630FFF707
:10953000D3FD20600AF0DDF923685D8023689E80FA
:10954000002F06D03B00320029002000FFF7B0FFBB
:10955000E9E720000AF0F0F8E5E7C046E869020014
:10956000F7B506000D1E03D1244B03603000FEBD8D
:1095700000200F000400010001903B78002B1AD05E
:109580003022524294469C446246092A11D90A2B41
:109590000AD1019B241801330193A14200DA210072
:1095A000002004000137E8E70028FBD00134002048
:1095B000F8E70120F6E70127019A09B212B230005C
:1095C0007F42FFF7A5FF39000A2033689A1D2C78E7
:1095D000002CCBD02300303B092B08D8FB43DB17F2
:1095E0003B4043431B19303B1F000135EFE7002F81
:1095F000FBDB177001320F00F7E7C046E869020095
:10960000F0B5040089B006A80E0002921D00FFF715
:1096100023FD236802995A88914235DA9B889D423E
:1096200032DA1F2E30D9079B01939E422CDC052392
:10963000002273430393069B0493039B04999B1896
:10964000A03BCB5C00210593AE18029BCF1823688A
:109650005888019087420EDA9888B0420BDDDB19FA
:1096600010270F41019870431B1805980740781E7A
:1096700087417F429F7101310529E6D10132052AD8
:10968000DBD1002009B0F0BD0048FBE717FCFFFF6D
:10969000F7B50468070063880E1E01931EDD99422A
:1096A00018DA0023063400933B68009A9B889A429C
:1096B00012DA019BA1199D1B2A0020000DF044F82D
:1096C000601931000AF01BF83B685B88E418009BC6
:1096D0000133E8E70AF030F8002000E00048FEBD62
:1096E00017FCFFFF10B50548054C20600AF004F98F
:1096F000044A054920000CF0EDFF10BDE8690200A6
:109700002026002000200020F136020010B5054C74
:10971000012120000AF0D8F8034A044920000CF087
:10972000D9FF10BD2426002000200020753802003B
:109730000388074A10B50120934208D0834202D023
:109740000020DB0703D41E20FFF70CF9002010BD1A
:10975000FFFF00000048704716FCFFFF10B53220E5
:10976000FFF700F9004810BD16FCFFFF10B5124CC2
:109770000023083482800460416202241422010024
:109780008371847203638386028136310A78C360F1
:10979000A243F1342240036143618361C3610362E8
:1097A0000A70020040321370021DD38701334387D1
:1097B0008387C38710BDC046086A0200F0B5544FC6
:1097C00097B03B6806000593002B00D08BE006ACF9
:1097D0000B331C222121200001F076FA0EAD0B2361
:1097E0001D2222210AA801F06FFA0B231B2223213C
:1097F000280001F069FA08200CF073FF0122059B94
:10980000110004900BF014FC3A2130000BF06AF9BF
:1098100000281DD0A38812ADAB80A3795C20AB716A
:109820003C4B1293A3681493237B2B73637B6B7362
:10983000A37BAB730CF055FF0423019336330093E5
:109840002A00049B3100040002F064F93C604AE005
:10985000322130000BF074F900281CD0A38812AD1F
:10986000AB80A3795C20AB712A4B1293A36814934D
:10987000237B2B73637B6B73A37BAB730CF031FF88
:10988000042301932E3300932A00049B310004002B
:1098900002F0DEFADAE73C2130000BF00CF9002888
:1098A0002CD0AB8812ACA380AB79A420A371194B48
:1098B0001293AB6814932B7B23736B7B6373AB7B2B
:1098C000A3730CF00EFF052305000293013B0193E7
:1098D000383300932200049B310002F039F80E4B1C
:1098E0003D6044351D600C4B094C1868002802D0BF
:1098F00021680AF06BF9206817B0F0BD44200CF025
:10990000F0FE042204990400FFF730FF9EE7C046F2
:1099100028260020F86902002C260020F0B56149B5
:10992000C56885B08D4254DA0300022236331B78B5
:10993000134059D104698C4264DA0200363212783D
:10994000520768D4426901920200019E40328E4261
:109950006FDA010036310978090774D4002B7DD104
:1099600013780293002B16D006000127011DCB8F20
:10997000363601339BB2CB8703963678BC463740E8
:1099800000D188E01D2B06D963469E43039B1E70C1
:109990000023CB87137009F0F9FF434A0723904255
:1099A00076D94249043B8D4272DBC82201339200D2
:1099B00095426DDC023B8C426ADB013B944267DCE2
:1099C00001980433884263DB0133904260DC00235A
:1099D0005EE0C822002352009542ABDD030036331F
:1099E0001A7800239207A5D4012306001F003636FB
:1099F00032785408A7433C0002279C40BA432243D4
:109A0000327097E7C822520094429BDD0200363242
:109A10001278520796D406000122363633789F0812
:109A2000BA439700042293431A003A433270012349
:109A300088E7C821019E49008E428FDD0100363142
:109A4000097809078AD40100012636310B78DF082E
:109A5000BE430827F600BB4333430B701378032B38
:109A600000D97DE70133DBB21370012B03D1002154
:109A7000031DD98774E7042B00D071E7020036324A
:109A80001178033B0B43137000230430C3870B335F
:109A9000180005B0F0BD092B00D87CE7029BCF87EA
:109AA000013B77E770FEFFFFFF700200E0FCFFFF65
:109AB00070B5C369C1681A68451D8AB00400EB7FA0
:109AC000114255D0002B58D1EB7F082B0DD9012224
:109AD000A379134209D11343A371A188130006A8E7
:109AE00009F0E3FDFFF7DAFB2062EB7F012B23D8BF
:109AF0000123A2791A421FD00025A188A571022254
:109B000002A809F0D2FDA31DDE7F012E14D1FFF7BC
:109B1000C5FB2B00226A801A994100900191019B9C
:109B2000A188AB4203D1174B009A9A4227D901234F
:109B3000042206A809F0B9FD0322A3791340012BE2
:109B400014D1FFF7ABFB0023226A801A9941994296
:109B500002D10D4B984209D90223A279A18813435F
:109B6000A3710522012306A809F09FFD0AB070BD6C
:109B70000B2BA9D80133EB77A6E7013BFBE73300BA
:109B80000322D6E7E7030000DB05000010B5040060
:109B9000034B08330360FFF7B7FB200010BDC0463E
:109BA0003C6A0200F0B5070000250E00040085B0F5
:109BB00002930AAB1B78083703930F4B01920833CB
:109BC0000360858085712900182238000CF0D8FDCB
:109BD000039A310038000CF006FC019B029AA38026
:109BE000A31DE671DA77631D25622000DD77FFF79C
:109BF0006DFB200005B0F0BD3C6A020000487047D4
:109C000016FCFFFF10B53320FEF7ACFE004810BD78
:109C100016FCFFFF002310B50400838083710D48FC
:109C20002164083020608020C000A061E0612062D3
:109C3000E3602000236163616362A362E3622363E4
:109C40006363A363E3636364110009F097FF20007B
:109C500010BDC046546A0200F0B5534F97B03B6840
:109C600006000593002B00D08BE00B331C22212132
:109C700006A80AAC01F028F80EAD0B231D22222104
:109C8000200001F021F80B231B222321280001F0E2
:109C90001BF808200CF025FD0122059B1100049003
:109CA0000BF0C6F91D2130000AF033FF00281DD04B
:109CB000A38812ADAB80A3796020AB713B4B1293AC
:109CC000A3681493237B2B73637B6B73A37BAB73AE
:109CD0000CF007FD05230193183300932A00049B21
:109CE0003100040001F0EAFF3C604AE03C21300012
:109CF0000AF03DFF00281CD0A38812ADAB80A379E9
:109D00006020AB71294B1293A3681493237B2B73B0
:109D1000637B6B73A37BAB730CF0E3FC05230193B4
:109D2000373300932A00049B3100040002F032F91B
:109D3000DAE73C2130000AF0BEFE00282AD0AB88CA
:109D400012ACA380AB79A420A371184B1293AB681B
:109D500014932B7B23736B7B6373AB7BA3730CF02C
:109D6000C0FC052305000293013B019338330093A7
:109D70002200049B310001F0EBFD0D4B1D604435CA
:109D80003D600B4B084A1B681068002B00D04364F1
:109D900017B0F0BD48200CF0A4FC05220499040083
:109DA000FFF738FFA0E7C0462C260020F869020024
:109DB0002826002082B0F0B50400EDB06420739333
:109DC00072920CF09AFB052210A8110009F0BDFC5C
:109DD000974911A8FFF7C4FB002221AB6CA91A60B8
:109DE0005A609A600C339942F9D11922002113A8C4
:109DF0000CF0C6FCA0680AF080FA00260B90FF2148
:109E0000A06800F047FD8B4FA06800F05DFB07964F
:109E10000996884B9F4203D0874B9F4200DBFDE0B1
:109E2000A0680AF06CFAA56884491AA8FFF77AFAC4
:109E300078221AA9280000F075FC1AA809F08AFBFC
:109E400000267C4F0322099B606801331A40099267
:109E500009F034FE0500606809F037FE0022784BF7
:109E600005929D4210DB013205922A00C8320BDBBD
:109E7000AA22042192000591954205DC0222059256
:109E8000C82D01DD0132059200220692984210DBB6
:109E9000012306930300C8330BDBAA2304329B0083
:109EA0000692984205DC02230693C82801DD01339F
:109EB000069310A809F040FC002513ABEB5C012BC6
:109EC00008D160496B00CA185278C95C10A8FF23FA
:109ED000FFF7D8FA0135192DEFD16B4618229A5E9B
:109EE0006B4610A81421595E099BFFF7CBFA002F8F
:109EF00001DB0F2E07D90023A068009374301A00ED
:109F000010A909F02FFC01230893089B05995A001A
:109F10004C4B9B189A1E12788A4226D1013B1B7823
:109F2000069A934221D1089A6CAB9B18663BFF3B83
:109F30000A931B78012B18D00C23079A21685343EE
:109F40001D0000220CA809F043FE21AA2B00944614
:109F50000CAA634423CA23C301220A9B01361A7048
:109F6000079BF6B20133DBB20793089B01330893DA
:109F70001A2BCAD164200CF0C0FA079B643F3FB291
:109F8000182B00D845E71A0021A91AA80AF02EF8C4
:109F90006A461DAB23CB23C21B6813601A991B9A18
:109FA0001C9B206809F0FCFDE568002D0CD02649BB
:109FB00012A8FFF7B7F91C231AAA12A928000AF061
:109FC00045FD12A809F0C6FAA0680AF098F911A98F
:109FD00012A8A56809F099FB00221C4B009212A957
:109FE00001932800130000F00DFB12A809F080FB7C
:109FF000FA2080000CF081FAA0680AF080F90B9931
:10A00000A06800F047FC11A809F072FB10A809F045
:10A010006FFB6DB0F0BC08BC02B01847002F02D037
:10A020000F2E00D00EE7A06800F04EFA0AE7C046F7
:10A030003B7702008C3C0000D18AFFFF8077020052
:10A0400058FDFFFFA077020095770200DC050000B5
:10A05000F0B587B001930EAB1B88060003930D9BF0
:10A060000D000093019B02920C9F002B3CD0002F0F
:10A0700002D1009BDB0737D528200CF032FB04000F
:10A08000103009F008FB029B1820258063800CF03B
:10A0900028FB0500009B08220593019B002103601B
:10A0A0000C3004970CF06CFB082204A9281D0CF05E
:10A0B0004BFB0E4B02226B6100230399E36023628A
:10A0C000636233680A43A560A2805B6821003000A8
:10A0D0009847002806D0200009F0F2F920000CF083
:10A0E000F5FA034807B0F0BD0248FBE7113C020057
:10A0F00016FCFFFF17FCFFFF70B58CB08360109B50
:10A1000001604260C3600400184918000AF065FC51
:10A11000051E14D001001C22103105A80CF014FB00
:10A120006A4608AB43CB43C21B681360206805999D
:10A13000069A079B09F034FD28000CF0C7FA0C4B77
:10A14000186800280ED00B4A05AB05920022069233
:10A15000C03202926A4622CB22C22300032205218A
:10A16000FFF776FF20000CB070BDC0469577020067
:10A170001C260020B59D0100F0B5040085B0637A6F
:10A180009C46002B04D1200009F04EFF05B0F0BD25
:10A19000A37A266F01931023019AF35600259B188A
:10A1A00001229A402900F36803920293029BAB427A
:10A1B00031DDB368019A6B439B1872695B00E77AE3
:10A1C000D3181A785878E379012F14D15F1E3F1AFB
:10A1D00010003A005B004343606F8218D3189B79EC
:10A1E000634500DD6346627B1A4202D00123AB4027
:10A1F00019430135DAE7022F05D15F1EBA1A277A13
:10A20000013F381AE6E7032FE4D1277A013FBF1A4E
:10A2100002003800DEE71123C943F356606C994011
:10A2200023691940039B19430CF027FAA27B072AE4
:10A23000ACD8637B0C495B006373531CDBB29000AA
:10A240004158A373022A03D808000CF04BF996E793
:10A25000064B2000236300236363054BE462236401
:10A2600014300BF0DDFF91E7806A020079A1010054
:10A270001340020010B50400044B03600BF0C8FF4C
:10A28000200006F0A3F8200010BDC046DC710200DB
:10A2900010B504000E4B08330360FFF735F82000BB
:10A2A000743009F025FA2000603009F021FA20000E
:10A2B000583009F04FF92000503009F04BF92000D8
:10A2C000044B14306361FFF7D5FF200010BDC0467A
:10A2D000A06A0200F0710200F8B500250400324BBC
:10A2E0008580083303608571143016000F0006F076
:10A2F00057F820002D4BE562636125645030FFF76D
:10A300007DF820005830FFF779F820006030FFF723
:10A31000A3F820000423F25E33682667590009B2CF
:10A32000743009F012FA3368226FE3717368012602
:10A33000237210236581A7802561D356916859182F
:10A34000994204DD3000984001330543F8E71123BA
:10A350000120D356D1685918994206DD02009A406F
:10A360002669013332432261F6E714200CF0B9F973
:10A37000226900212A430123060006F09BFAFF23ED
:10A38000220063720133A381002348326664A37301
:10A3900020001370A366FEF799FF0123A279200025
:10A3A0001343A371F8BDC046A06A0200F071020019
:10A3B000F0B5437A85B00400002B04D1200009F0E9
:10A3C00033FE05B0F0BD0122837A11009C461023B4
:10A3D000066F0025F35603926344994002912900C9
:10A3E000F3680193019BAB422CDDB36872696B4348
:10A3F00063445B00E77AD3181A785878E379012F21
:10A4000010D15F1E3F1A10003A005B004343606F9B
:10A410008218D3189B79002B02D0039BAB401943C1
:10A420000135DFE7022F05D15F1EBA1A277A013FF7
:10A43000381AEAE7032FE8D1277A013FBF1A020052
:10A440003800E2E71123C943F356606C9940236951
:10A450001940029B19430CF010F9667AB31EDBB267
:10A46000FC2B14D8FEF7E0FE0B4B05002363002302
:10A470000A4863630A4BFF21E4622364704306F0D9
:10A480009BFD29004143200014300BF0C9FE637A84
:10A49000012B00D995E791E729400200B60300009F
:10A4A000134002001FB5012381881A00684609F095
:10A4B000FCF8012303491A00684609F0F6F805B0D4
:10A4C00000BDC046FE0300001FB5030048331A78E4
:10A4D0000400002A0DD000221A70012381881A007E
:10A4E000684609F0E2F8012304491A00684609F0B9
:10A4F000DCF82000743009F01FF91FBDFF030000D5
:10A5000010B548300378002B06D00378012B03D018
:10A510000121024808F029FF10BDC046FF030000DA
:10A5200010B501210400062008F01FFF064B9842D9
:10A5300008D148342378002B04D02378012B01D094
:10A5400020BFF7E710BDC04616FCFFFF70B5060040
:10A55000141E19DB050048352B78002B02D02B7810
:10A56000012B13D1002330001A007430FFF748F894
:10A57000002C07D033004A331C80002407234C36BC
:10A5800034802B70200070BD014CFBE7014CF9E7D3
:10A5900017FCFFFF12FCFFFFF8B517000A68050063
:10A5A00052880B00012A09D10021180009F066F831
:10A5B000002201002800FFF7C9FFF8BD002F19DDB8
:10A5C000060048363278002A02D03278012A13D1A8
:10A5D0002A00002428005C3219001480583009F049
:10A5E00018F82B004A331F8003234C352C802000A1
:10A5F0003370E2E70148E0E70148DEE717FCFFFFC0
:10A6000012FCFFFF73B5079C0500002C1CDB060045
:10A6100048363078002802D03078012816D10698C4
:10A620001BB2C0B20090280012B2743009F09AF840
:10A63000002C07D02B004A331C80002407234C3504
:10A640002C803370200076BD014CFBE7014CF9E70C
:10A6500017FCFFFF12FCFFFFF7B505000E00171EE9
:10A6600026DDFFF74DFF2B0048331C78E4B2002CA9
:10A6700020D133685B88012B09D12100300008F01C
:10A68000FDFF220001002800FFF760FFFEBD310042
:10A6900001A808F0B6FF3A0001A92800FFF77CFFE7
:10A6A00001A808F057FF2800FFF73AFF2000EDE768
:10A6B0000148EBE70148E9E717FCFFFF11FCFFFF4A
:10A6C000F0B587B00D9C06000F0002920393002C9A
:10A6D00020DBFFF715FF330048331D78EDB2002D66
:10A6E0001AD1390005A809F010F80C9B01940093C9
:10A6F000029A039B05A93000FFF784FF05A808F024
:10A70000F7FF002C03D03000FFF70AFF2C002000D9
:10A7100007B0F0BD014CFAE7014CF8E717FCFFFF6A
:10A7200011FCFFFFF8B50400171E1DDD06004836BA
:10A730003378002B02D03378012B17D12200E37934
:10A740005632013B137023000025200054331D8036
:10A75000503008F05EFF23004A331F800223280098
:10A760004C3425803370F8BD0148FCE70148FAE716
:10A7700017FCFFFF12FCFFFFF7B505000F00161EC8
:10A7800018DDFFF7BDFE2B0048331C78E4B2002C27
:10A7900012D1390001A808F034FF320001A92800C5
:10A7A000FFF7C0FF01A808F0D5FE2800FFF7B8FEAC
:10A7B0002000FEBD0148FCE70148FAE717FCFFFF57
:10A7C00011FCFFFFF8B50400171E2DDD060048360A
:10A7D0003278002A02D03278012A27D15D42069BC6
:10A7E000FF331FD16B1D22001BB264321380230084
:10A7F000200066331D70603008F08FFF23000022B8
:10A800006C331A70954200D03D0023004A331D80FE
:10A81000079B00205A1E9341013F4C34053327808B
:10A820003370F8BD069BDEE70148FAE70148F8E718
:10A8300017FCFFFF12FCFFFFF0B587B005000F000B
:10A84000161E03931EDDFFF75BFE2B0048331C78BA
:10A85000E4B2002C18D1390005A808F056FF0D9B72
:10A86000320001930C9B05A900932800039BFFF77E
:10A87000A9FF05A808F03CFF2800FFF751FE2000C3
:10A8800007B0F0BD0148FBE70148F9E717FCFFFFFF
:10A8900011FCFFFFFF2902D84172002070470148D8
:10A8A000FCE7C04617FCFFFF13B5040004A80078BE
:10A8B000009020000BF022FC002801D1207516BD6D
:10A8C0000048FCE70EFCFFFF13B5040004A8007865
:10A8D000009020000BF0FAFB002801D1207516BD76
:10A8E0000048FCE70EFCFFFF7FB50D0011000F22B2
:10A8F0006A4404001E1E117016D0089B002B13DD45
:10A90000012329000093FFF7DFFF002802D007484A
:10A9100004B070BD0090089B320029002000FFF7B2
:10A92000C3FF0028F4D0F2E70148F1E70EFCFFFF77
:10A9300017FCFFFFF7B507000D1E3FD000230226CE
:10A9400004690193002C35D0AA88A3885340334270
:10A9500004D1324204D1AB88334226D0646AF1E795
:10A96000A968A0680AF049FB0028F4D02B88002BC6
:10A9700002D022889A42F1D16B88002B02D06288E3
:10A980009A42EBD1EB68E268934201D0002BE5D10B
:10A990007B68002B01D020009847A288084B134306
:10A9A000A380019B01330193D8E7A368AA6893426F
:10A9B000D4D1DBE7019B2000002B00DC0148FEBD69
:10A9C0000080FFFF17FCFFFFF0B5060085B00D1EED
:10A9D0005DD001270469002C26D00221AA8800231B
:10A9E0000A4202D0A3885B083B40226829688A4259
:10A9F00014D1A068A968002B0ED00AF0FEFA002836
:10AA00000CD0EB68E268934208D1A3881AB2002AFE
:10AA100006DB204805B0F0BD8842F2D0646ADAE770
:10AA20005B045B0CA380F4E730692A88002807D117
:10AA3000356101231849684608F037FE0020E9E730
:10AA4000010003001C88944206D25C6A1900002CA5
:10AA50000DD02300F6E723001C88944207D15F88BD
:10AA60006C88A74203D85C6A1900002CF3D1884295
:10AA700009D10B889A4204D305D148886B88984243
:10AA800001D96962D4E74B6A6B624D62D1E7034832
:10AA9000C0E7C04616FCFFFFFD03000017FCFFFFE8
:10AAA000064B10B51A00040008322C330260836094
:10AAB0000830FEF779F9200010BDC046B86A0200E0
:10AAC00008B4024B9C46083808BC6047A1AA0100A4
:10AAD00008B4024B9C46083808BC60477144020029
:10AAE0000C4A002311002C32083110B543608381D9
:10AAF00083738260036143618361C38301600400E7
:10AB00000830FEF743F9044B1A68002A00D11C6094
:10AB1000200010BDB86A02001C260020F7B50E0008
:10AB2000012504690192002C36D0238832889A428C
:10AB300001D0002B23D1638872889A4201D0002B68
:10AB40001DD1FEF797F80123002806D0C022A38864
:10AB50001340C03B5A425341DBB2019A934219D190
:10AB6000A7883BB2002B15DB10223100A0180BF098
:10AB7000EBFD40231F4204D0200009F082FC646AF0
:10AB8000D1E7FEF777F80028F6D021000348FEF75A
:10AB900023FAF4E70025F2E72800FEBD8344020013
:10ABA00008B4024B9C46083808BC60470B460200BC
:10ABB000F0B587B001930EAB1B88060003930D9B85
:10ABC0000D000093019B02920C9F002B3CD0002FA4
:10ABD00002D1009BDB0737D528200BF082FD040053
:10ABE000103008F058FD029B1820258063800BF080
:10ABF00078FD0500009B08220593019B002103605E
:10AC00000C3004970BF0BCFD082204A9281D0BF0A2
:10AC10009BFD0E4B02226B6100230399E3602362CC
:10AC2000636233680A43A560A2805B68210030003C
:10AC30009847002806D0200008F042FC20000BF0C6
:10AC400045FD034807B0F0BD0248FBE7454602005A
:10AC500016FCFFFF17FCFFFFF0B5040016000025EF
:10AC60008380164A164B85710260218146810573E7
:10AC7000186889B08C46A8421DD0124A05950492E6
:10AC8000C02202926A4604AB82CB82C223002A0011
:10AC90006146FFF78DFFC022094B0A4918680292EE
:10ACA0006A46069106AB079582CB82C223002A0032
:10ACB0003100FFF77DFF200009B0F0BDFC6A020003
:10ACC0001C2600206F47020030B5002403730123C7
:10ACD000034D84710560818082734373846030BD4D
:10ACE000F869020070B583790400DB0702D580683B
:10ACF0000BF0ECFCA3799B0702D5A0680BF0E6FCF7
:10AD0000A3795B0707D5A0230021144ADB00D150AB
:10AD1000A0680BF0DBFCA3791B0708D5A568002D04
:10AD200005D028000AF0DAF928000BF0CFFCA3794F
:10AD3000DB0605D5A068002802D00368DB689847C9
:10AD40006023A2791A4205D0A068002802D00368C7
:10AD50005B6898470023A360A37170BD007000403A
:10AD6000F7B50126037B040033422AD0612385799D
:10AD70001D4017D1FFF7B6FF18200BF0B2FC0E23D1
:10AD80000700E35618220093637B290001930BF020
:10AD9000F7FC019A009938000BF025FBA379A76016
:10ADA0003343A3716023A279A0681A4202D00BF04A
:10ADB000C6F9FEBD436940681B681840431E9841B0
:10ADC000F7E70148F5E7C04616FCFFFF10B5012480
:10ADD000837941731C4004D080680BF095FB002000
:10ADE00010BD6022134203D080680BF0AFF9F6E784
:10ADF0000048F5E716FCFFFF70B5040000250C4B7A
:10AE00000E0008338580857103602100183009F039
:10AE10005FFD20002100203009F085FD054BA68054
:10AE2000E5802572E5602561656120001C6070BDCC
:10AE30000C6B0200302600208379DB0702D5C1604D
:10AE4000002070470048FCE716FCFFFF8379DB0712
:10AE500001D5C06870470148FCE7C04616FCFFFFFB
:10AE600070B545690400002D22D0037A032B21D848
:10AE7000FFF7ECFFA8622C200BF033FC2C22002102
:10AE800005000BF07DFC002263695A62236993423E
:10AE900008D1636923610020237A6561013323723D
:10AEA00070BD13005A6A002AFBD162695A62F2E748
:10AEB0000148F5E70148F3E717FCFFFF13FCFFFF2C
:10AEC000144B70B55A68144C002A03D000225A6003
:10AED0000132A2601A69002A17D00021196180236B
:10AEE000DB000E4DE3582868012B0FD1A923DB00AE
:10AEF000E1584942FFF7A0FF2868FFF7B1FF2B6830
:10AF00005A69074BE2500123A36070BDFFF794FF1D
:10AF1000F9E7C046FC100040001000403026002039
:10AF20000405000070B505000C0008F0ACF900281D
:10AF300004D1034A034BEC71D45070BD0248FCE7C6
:10AF4000001000402405000016FCFFFFF8B58379CF
:10AF500005000020DB0768D408F095F9002865D1CA
:10AF60006E69002E08D12C300BF0BBFB04002C22A4
:10AF700031000BF005FC6C616B69002B58D000228E
:10AF80002C4B01215A608022D20511605A68002A98
:10AF9000FCD00622284B294C9A56294B0026E25019
:10AFA0000722043BE2500833E650264A264B28008D
:10AFB000E250E979FFF7B6FF01220821234B24482C
:10AFC000E6500433E250234B234FE1500433E0506A
:10AFD00002232248235022482750224F043827506A
:10AFE0001827214827506F6920482750C12080002A
:10AFF00021501F498538FF380B500B608021890094
:10B0000060580E33034363501A4B5E6062605A68A7
:10B01000002AFCD0002601271E612800A760FDF74A
:10B02000B5FE3000AB791F43AF71F8BD1248FCE7A5
:10B030001248FAE7FC0000405D7802000010004072
:10B040000C050000746962751C0500002C050000E9
:10B050002000040214050000FFFF0000340500007A
:10B060003C0500002110010054050000040500000B
:10B0700000E100E0FC10004016FCFFFF13FCFFFFA6
:10B0800003000069002809D00221054AD167426AFD
:10B090001A611A7A013A1A72024B19607047C04657
:10B0A00004E100E000E100E070B504000D0008F0EC
:10B0B000EAF800283AD1002D3AD02B78232B37D844
:10B0C00002221C4B1C49DA671C4B013A58610A6189
:10B0D0005A69002AFCD00020194A8D50586001306E
:10B0E000086058680028FCD0002018610130886092
:10B0F00018690028FCD06069885000225A6101322A
:10B100000A615A69002AFCD000225A6001324A6062
:10B110005A68002AFCD00020186101238B60C021EE
:10B120000222084B49005A501A6070BD0648FCE7DD
:10B130000648FAE704E100E000100040FC1000407F
:10B140000405000000E100E016FCFFFF17FCFFFF14
:10B1500037B54C680500002C04D10C4908F091FB70
:10B1600028003EBD636A01A84B602278211D033A86
:10B17000A36A08F0B2FB20000BF0A8FA01A928008E
:10B1800008F07FFB01A808F075FBE9E72426002002
:10B1900030B505008DB0002912D0232A10D801AC9B
:10B1A000D31C002023700123A07002A86370E370F9
:10B1B0000BF0CAFA21002868FFF776FF0DB030BD0A
:10B1C0000048FBE717FCFFFF10B5002903DB024B2B
:10B1D00019600AF0FFFF10BD3426002070B504008E
:10B1E0001E0004AB1D7805F0A5F820000E4B403082
:10B1F0002360FEF703F9230001364C3301352200AA
:10B200001E701D730023E1214E32A3646365138019
:10B2100053809381D381013B200063644902FFF78F
:10B22000D3FF200070BDC046A8690200F7B5802793
:10B230007F053D697C690822113C6C4306002100B2
:10B2400068460BF081FA104B009A9A4219D000938D
:10B2500000230193796930001339694309F078FBC1
:10B26000019A0099300009F08BFB2100300009F0B1
:10B270006FFB7969AB08133969432200300009F08C
:10B2800071FB0198FEBDC046FECA0000F0B50D007E
:10B29000A9B00D9200213022060010A80B930BF0EC
:10B2A0006FFA28000BF0BAFA431C0C93102B00D94C
:10B2B000B5E00B9B202B00D9B1E02900300009F04C
:10B2C0008CFB071E50D129000C9A10A80BF03CFAF9
:10B2D0000D990B9A14A80BF037FA80235B051A69B5
:10B2E0005F690C92113F7A4330005D690B92FFF762
:10B2F0009DFF3022002104001CA80BF041FA290018
:10B3000000270C9B13395943300009F021FB0D979E
:10B3100030257D430B9B0833ED18A74242DA290004
:10B3200030221CA80BF010FA10A91CA80BF06CFA24
:10B33000002827D13C49300022000E910F9409F0DB
:10B340001FFB6A46099513AB23CB23C223CB23C231
:10B3500023CB23C23000129B1099119A09F01EFBD7
:10B3600001230D930137D3E710300B9A0D990BF0A1
:10B37000DCF9040038000BF0A9F9002CA3D120005F
:10B3800029B0F0BD6A4609951FAB23CB23C223CB5E
:10B3900023C223CB23C230001C991D9A1E9B09F0A7
:10B3A000FDFADFE7E5433023ED1725405D430B9BB6
:10B3B00008355D190D9B002B1DD10C9B3021981E6B
:10B3C00005F070FDA0422CD0174901343000220056
:10B3D0000E910F9409F0D4FA6A46099513AB23CB6A
:10B3E00023C223CB23C223CB23C230001099119A4E
:10B3F000129B09F0D3FA0B99300009F0A9FA8023C7
:10B400005B0559690C230C9A133963434A43023391
:10B41000110030000B9A09F0A5FA0024AFE7034CA5
:10B42000ADE7034CABE7C046FECA000017FCFFFFC8
:10B4300013FCFFFF8023F0B55B051A6995B00392FA
:10B440005A6905910399113A51435D69039B133D74
:10B45000040002915D43FFF7E9FE061E3BD0002782
:10B4600030220021083508A801950BF089F90199CF
:10B47000200009F06DFA049730237B43029D0835C4
:10B48000ED18B7421FDA2900302208A80BF05CF94A
:10B49000059908A80BF0B8F900280AD11949721EBD
:10B4A00020000691079209F06BFA012304930137FB
:10B4B000E2E70C23019A2900200009F053FA019BCE
:10B4C00030330193F3E7049B002B06D10D49320082
:10B4D000200009F055FA0C4812E00299200009F00A
:10B4E00037FA80235B0559690C23039A13394A43C1
:10B4F0007343110020000233029A09F033FA00204E
:10B5000015B0F0BDFECA00000CFCFFFF70B50400D2
:10B51000A280FA22002308000C4992000831216021
:10B52000A3716061E260A3606382094909F055FA82
:10B53000051E09D0010020001031022212300BF04C
:10B5400003F928000BF0C2F8200070BD246B020044
:10B55000D277020030B50225837987B004002B42F0
:10B5600004D1FDF713FCA3791D43A571200009F058
:10B570007EFA00281CD06B46DD1C280009F06EFA0C
:10B580002B78002B17D001A809F066FA0321019A45
:10B59000D3170B409B189B102382FDF77FFEE368B7
:10B5A000A18818180123A0601A0002A808F07DF8ED
:10B5B000002007B030BD0122064B1A60064A5168D0
:10B5C0000029FCD000215160044A12680192012236
:10B5D0005A60DBE700C00040FCC0004008C50040E6
:10B5E000022802D10122014B1A707047182900204D
:10B5F00070B5064C05002378002B04D1044801F0F7
:10B60000D3FF01232370280070BDC04619290020F4
:10B61000E1B5010070B50C0007F035FE002810D030
:10B620000023144DA40A2B70200009F034FA0028DE
:10B6300003D00A200AF061FFF6E72B78002BFCD03C
:10B6400070BD02210C4B0D4A99508021C9000800A1
:10B650005D58002DFCD0A121C9005C50195800296B
:10B66000FCD0002199508021C9005A58002AFCD0F2
:10B67000E6E7C0461829002000E00140040500006C
:10B68000F8B50C0015001E0007F0FDFD002811D0D4
:10B690000023174F3B7032002900200009F0F9F910
:10B6A000002803D00A200AF028FFF4E73B78002B9B
:10B6B000FCD0F8BD01210F480F4B84461950802162
:10B6C000C9005A58002AFCD080270022FF00964269
:10B6D00007DD910068586050D9590029FCD001322B
:10B6E000F5E7002261465A50DA59002AFCD0E0E71B
:10B6F000182900200405000000E0014008B4024BB6
:10B700009C46443808BC60479B4A0200FA21F8B5C1
:10B710000389C90004005943324809F084FCFA2126
:10B72000890005F0BFFB304F2081A17A380009F075
:10B730007AFC23002600250022894C33A072A03613
:10B740001A808C35317800232A22286808F0E4FD1D
:10B75000002801D02548F8BD31781F235B222868D6
:10B7600008F0DAFD0028F5D1317820235C22286822
:10B7700008F0D2FD0028EDD1317801232C22286871
:10B7800008F0CAFD0028E5D1317801232D22286870
:10B7900008F0C2FD0028DDD1317801232E2228686F
:10B7A00008F0BAFD0028D5D1A17A380009F036FC9E
:10B7B0003178C3B20E22286808F0AEFD0028C9D146
:10B7C000FA21238989005943064809F027FC0123FF
:10B7D0000343DBB231782A22286808F09DFD002857
:10B7E000B9D0B7E7446B02003C6B02000EFCFFFFD0
:10B7F00008B4024B9C46443808BC60470DB70100B2
:10B80000074B10B51A00040008323C330260436451
:10B81000443008F081F9200008F0AAF8200010BD9B
:10B82000A46B020008B4024B9C46443808BC604735
:10B8300001B8010008B4024B9C46443808BC60477C
:10B84000A54A0200F0B5042583798BB004002B4291
:10B8500004D1FDF79BFAA3791D43A5712000903018
:10B86000FFF77EFA0026B0420FD12300A0331978EB
:10B8700020000C2307AD00938C302B0001220068C0
:10B88000FFF732F8061E03D02C4E30000BB0F0BD8F
:10B890000A2304AA9B182A785A706A781A70002220
:10B8A000985EAA785A70EA781A700022995E03911D
:10B8B0002A795A706A791A7000229F5EAA795A70A2
:10B8C000EA791A7000215A5E04922A7A5A706A7ACA
:10B8D0001A7000215A5E0592AA7A5A70EA7A1F25D8
:10B8E0001A7000229B5EA27A03999C4651434942FA
:10B8F0005043CB172B407A435B185B11A361C317EE
:10B900002B401818D3171D406423AD18059A5B42CD
:10B910005343A36764236146049A40115A434B433F
:10B92000E2676D11221DE06125622000D36708F0F7
:10B9300098F82000443008F0F6F8A6E70EFCFFFF68
:10B9400008B4024B9C46443808BC604745B8010027
:10B95000F7B51E00040008AB1B881500019309AB66
:10B9600000911A8831000AAB1F88FDF7FFFE200006
:10B970003A0031004430FEF74DF9134B20001A0015
:10B980003C336364230008322260009A8C331A60CF
:10B99000AB8890308380AB79019A83710B4B032184
:10B9A0000360AB6883602B7B03736B7B4373AB7B60
:10B9B00083732300A0331A80FFF708FA2000FFF7F3
:10B9C000A5FE2000FEBDC046A46B0200F86902007F
:10B9D000F8B5FA260189B60004007143264809F03B
:10B9E00022FB310005F05EFA244F2081A17A380055
:10B9F00009F019FB2500A0725835297800232A2266
:10BA0000606C08F089FC002801D01D48F8BD297839
:10BA100010232B22606C08F07FFC0028F5D12978D8
:10BA200001232D22606C08F077FC0028EDD12978E5
:10BA300001232E22606C08F06FFC0028E5D1A17A6A
:10BA4000380009F0EBFA2978C3B20E22606C08F0D6
:10BA500063FC0028D9D121890748714309F0DEFA37
:10BA600001230343DBB229782A22606C08F054FCDE
:10BA70000028CBD0C9E7C0460C6C0200046C020061
:10BA80000EFCFFFF10B50400034B0833036007F002
:10BA90006FFF200010BDC0466C6C02007FB504250E
:10BAA000837904002B4204D1FDF770F9A3791D437B
:10BAB000A57120004830FFF753F90025A8420DD1A9
:10BAC000230058331978062302AE00930122330075
:10BAD000606CFEF709FF051E03D00D4D280004B071
:10BAE00070BD022300210420F356A27ADB007156B8
:10BAF00030565343C000C900514342435B42A361E7
:10BB00002368E16122629B6A20009847E6E7C0460D
:10BB10000EFCFFFFF8B50400150006AA168807AA58
:10BB20000F0012881900FDF721FE0F4B67640833E0
:10BB300023602300AA8848339A80AA7920009A714A
:10BB40000A4AA264AA6822652A7B1A736A7B5A731E
:10BB5000AA7B9A730023A371230058331E80FFF73A
:10BB600037FF2000F8BDC0466C6C0200F869020087
:10BB700010B50400034B0833036007F0CDFF20002D
:10BB800010BDC046006D0200F0B507005C3787B0FD
:10BB90000400397800231022806C08F0BDFB0326D6
:10BBA000002802D01F4807B0F0BD0F2502ABED18EA
:10BBB0000123397808220093A06C2B00FEF794FE35
:10BBC000184B9842EED02B78334203D06420FDF717
:10BBD00077F9EAE7FA262189134DB6007143280068
:10BBE00009F021FA310005F05DF920813978A023B0
:10BBF0001122A06C08F090FB0028D3D1A36C2189FE
:10BC00000393714328003F7809F008FA0123184391
:10BC1000C3B210223900039808F07EFB0028C2D07E
:10BC2000C0E7C0460EFCFFFFA06C020070B50825FF
:10BC3000837986B004002B4204D1FDF7A7F8A379DD
:10BC40001D43A57120004C30FFF78AF8061E0DD069
:10BC500023005C331978062304AD009301222B00E6
:10BC6000A06CFEF741FE061E03D0134E300006B056
:10BC700070BD0E232A786B445A706A7820001A70BF
:10BC80000022995E64224A43A263AA785A70EA7835
:10BC90001A700022995E64225242514361632979ED
:10BCA00059706979197000215B5E5A432368E26319
:10BCB0001B6A9847DAE7C0460EFCFFFFF8B50400A0
:10BCC000150006AA168807AA0F0012881900FDF7AA
:10BCD000A1FF0D4BA764083323602300AA884C33CF
:10BCE0009A80AA7920009A71084AE264AA6862657B
:10BCF0002A7B1A736A7B5A73AA7B1E829A73FFF798
:10BD000043FF2000F8BDC046006D0200F869020044
:10BD1000F7B5FA250189204FAD00040069433800CA
:10BD200009F081F9290005F0BDF8A17A20811B48AE
:10BD300009F079F92600636CA072009321895836C6
:10BD4000337869433800019309F068F90723034306
:10BD5000DBB220220199009808F0DEFA002801D019
:10BD60000F48FEBD317810232222606C08F0D4FA0F
:10BD70000028F5D1A17A0948656C377809F04EF9A9
:10BD800080235B420343DBB223223900280008F002
:10BD9000C3FA0028E5D0E3E7346D02002C6D020001
:10BDA0000EFCFFFF10B50400034B0833036007F0DF
:10BDB000DFFD200010BDC046A46D0200F0B50425D3
:10BDC000837985B004002B4204D1FCF7DFFFA3790F
:10BDD0001D43A57120004830FEF7C2FF061E0DD09E
:10BDE000230058331978062302AD0093A8222B00B4
:10BDF000606CFEF779FD061E03D0144E300005B0CE
:10BE0000F0BD1F200023EA5ED31703409B180222D7
:10BE1000A95E5B11CA170240521804216F5E5211CD
:10BE2000F9170140C91949112B806A80A980A07AAD
:10BE30004343424341435B42E36123685242A26170
:10BE400021629B6A20009847D8E7C0460EFCFFFF9E
:10BE5000F8B50400150006AA168807AA0F00128874
:10BE60001900FDF783FC0F4B676408332360230040
:10BE7000AA8848339A80AA7920009A710A4AA26453
:10BE8000AA6822652A7B1A736A7B5A73AA7B9A7303
:10BE90000023A371230058331E80FFF739FF2000D1
:10BEA000F8BDC046A46D0200F8690200F7B5FA2596
:10BEB00004000189134EAD006943300009F0B3F866
:10BEC000290004F0EFFF2700A36C208100935C376A
:10BED0003B7881B269433000019309F09FF86022FA
:10BEE000C3B20199009808F017FA002801D006485B
:10BEF000FEBD397801236222A06C08F00DFA0028FB
:10BF0000F6D0F4E7D86D02000EFCFFFF10B5040078
:10BF1000034B0833036007F0FFFD200010BDC0464F
:10BF2000006E02007FB50825837904002B4204D1FE
:10BF3000FCF72CFFA3791D43A57120004C30FEF7C0
:10BF40000FFF051E0DD023005C331978062302AEC7
:10BF50000093E8223300A06CFEF7C6FC051E03D058
:10BF60000B4D280004B070BD0223F25E96235B42A5
:10BF70005A4362630021725E20005343A36304238B
:10BF8000F25E96235343E36323681B6A9847E8E70E
:10BF90000EFCFFFFF8B50400150006AA168807AAD4
:10BFA0000F0012881900FDF735FE0D4BA76408330A
:10BFB00023602300AA884C339A80AA7920009A71C2
:10BFC000084AE264AA6862652A7B1A736A7B5A731C
:10BFD000AA7B1E829A73FFF769FF2000F8BDC04656
:10BFE000006E0200F869020010B50400054B08332A
:10BFF00003601C3007F0AEFA2000183007F0AAFAF0
:10C00000200010BD2C6E0200FF23F0B52C4D8DB02A
:10C010002B700023040069460088009303F086F922
:10C02000002802D16B469B782B70264E3368DB6864
:10C03000002B07D1002320881A00190008F0A2FD68
:10C040000DB0F0BD2B78032BF4D81F4901A8FDF7E4
:10C0500069F9336801A9DE6804A807F0D2FA04A9D7
:10C06000300008F0EDFC0027060004A807F072FA83
:10C07000BE421ED031002022103104A80AF064FB19
:10C0800030000AF023FB297804ABC90059180822B4
:10C0900002A80AF059FB20880123082202A908F00F
:10C0A00071FD0137002804D12088084A0C2108F0CE
:10C0B00067FD01A807F04EFA002FBBD0C0E7C046CD
:10C0C000A02100204426002065780200FFFF000028
:10C0D000F0B5837991B004005B071BD5FDF7DEF85E
:10C0E00000232269801A9941994203D1F423FF3336
:10C0F00098420FD9A068002808D0364B1D8809F057
:10C100000AF8036815221B6A290098470422A379BC
:10C110009343A371A3799B0759D52F4D2B68DB68F7
:10C12000002B50D02D4B1B78032B4CD8294B2C497E
:10C130001B8804A80193FDF7F5F82B6804A9DE68B5
:10C1400008A807F05EFA08A9300008F079FC07009B
:10C1500008A807F0FFF902AB9E1D082332003380C8
:10C1600006A9073B019808F00FFD002F08D0390001
:10C170002022103108A80AF0E7FA38000AF0A6FADF
:10C18000164B32881B7806A9DE0008AB9E193000DA
:10C190000AF0CBFA002813D0082206A930000AF0D2
:10C1A000D3FA2B6804A9DD6805A807F02AFA202332
:10C1B00008AA05A9280008F049FC05A807F0CAF953
:10C1C00004A807F0C7F90222A3799343A37111B021
:10C1D000F0BDC046C028002044260020A021002039
:10C1E00065780200F7B5089E0500152922D80120C0
:10C1F00007008F40244C27421CD0E97FCC181F2C0D
:10C2000041DC69183418A14210D80021C8B2834219
:10C2100004D9545C701884700131F7E732789A18A9
:10C220003270EA7F9B18EB7700202CE00878C85426
:10C230000139E8E73478013CE4B2A34208D1002395
:10C24000D9B28C42F0D9D05CF11888700133F7E78D
:10C25000EF7F0120FF183F1B1F2F14DC0227A01CBB
:10C260007F423618381B0190E87F2F18BE4204D257
:10C270003078019FF0550136F6E7041B023CEC775D
:10C28000280008F0CBFCFEBDFC002000F0B5040047
:10C2900085B001930AAB1E880BAB1B78451C02933B
:10C2A0000EAB1B78170003930B78102203704B8A98
:10C2B0000131438228000AF047FA26830026012232
:10C2C000019B67616383039BE6832377029B2000C6
:10C2D000EB77A31CDA770C9B0C25636223000D9A85
:10C2E00028331A705E709E702A0031002C300AF0DC
:10C2F00047FA2000064BE663A3632A003100403072
:10C300000AF03EFA2000034B2665E36405B0F0BD59
:10C310009F4B0200914B020070B50D0008F0FBFE30
:10C3200004000368002D09D15B699847FA2080005A
:10C330006843074904F0B6FDE08070BD9B689847EC
:10C340008542F3D2236820009B6898470500EDE7FB
:10C3500071020000F0B507001600A1B002C704008A
:10C360006B4918A81D0008F0A0FC331E03D0300054
:10C370000AF054FA83B2012204920022039202923C
:10C38000023201920093320018A93800FFF77EFFB5
:10C3900023006049583318A8079308F086FC2B1E29
:10C3A00003D028000AF03AFA83B201220492002254
:10C3B000039202920232019200932A0018A9079870
:10C3C000FFF764FF23005449AC3318A8089308F022
:10C3D0006CFC269B002B03D018000AF01FFA83B2D6
:10C3E00001220492002203920292023201920093EF
:10C3F000269A18A90898FFF749FF631CFF3347499D
:10C4000018A8099308F051FC279B002B03D01800B3
:10C410000AF004FA83B2012204920022601C039203
:10C420000292023201920093279A18A9FF30FFF777
:10C430002DFF23005533FF33394918A8099308F01D
:10C4400034FC289B002B03D018000AF0E7F983B2D4
:10C45000012204920022039202920232019200937E
:10C46000289A18A90998FFF711FF2300A933FF3371
:10C470002C4918A80A9308F018FC299B002B03D01C
:10C4800018000AF0CBF983B201220492002218AD01
:10C4900003920292023201920093299A29000A988B
:10C4A000FFF7F4FE204B1B780B93002B2CD1079B3E
:10C4B00012971393089B0DAF1493631CFF331593CE
:10C4C000099B1A4916930A9B3800179308F0EDFB55
:10C4D0001D2149203B7810222B707B8A12AE6B8283
:10C4E00006ABC918C0180AF02FF906232B750B9B51
:10C4F0002068AB83AE6108F012FE036829001B6858
:10C5000098470122084B1A70200021B0F0BDC046A8
:10C51000292A0000242A0000252A0000272A0000DA
:10C52000262A0000282A00001A2900200A180000E4
:10C5300070B5002504000B4B8580083385710360BE
:10C54000C1601830FCF75AFF20001C30FCF756FF82
:10C550000123621CD377044AA56065612000146042
:10C56000A37170BD2C6E020044260020FA2130B564
:10C5700085B00500012302228900684607F095F87E
:10C58000074C2068002809D008F0C8FB2988054B13
:10C5900022681980022391790B43937105B030BD55
:10C5A00044260020C028002010B50C0007290DD813
:10C5B000806808F0B0FD064B195703685B6C98471C
:10C5C000431E9841034B4042184010BD0248FCE70F
:10C5D0005D78020016FCFFFF17FCFFFFF0B5A44CCE
:10C5E0000D00A544040007939AAB1B78A14909A844
:10C5F00004930692FCF796FE200029001C3007F0F9
:10C6000008F8C020800000F0C5FF08200AF069F893
:10C610000600002100F0AEFE15ADA66000210C2240
:10C620000EA80AF0ADF82B000EAA83CA83C3924B62
:10C630002900EB60002330002B6108F055FDA06855
:10C6400008F069FD08220021059016A80AF098F864
:10C6500014200AF046F829000200884B1593C8C937
:10C66000C8C2874B059EC3600023A43603613368AC
:10C67000002B00D0F5E03060A06808F050FD0822E3
:10C680000021060016A80AF07BF814200AF029F809
:10C690007C4B1593030086CD86C37B4BC360002380
:10C6A0000361336B002B00D0DDE03063A06808F03D
:10C6B00032FD08220021050016A80AF061F81420B6
:10C6C0000AF00FF8714B15AE1593030086CE86C3A2
:10C6D0006F4B9835C360002303612B68002B00D09B
:10C6E000C3E02860012504AB1B7C04AA2B4308A9E6
:10C6F0002800137408F04AFAA06808F014FD0368D3
:10C7000064495B6A9847A06808F00DFD03686249B8
:10C710009B699847A06808F006FD00230268009313
:10C72000166804992A00B047049B002B0AD0200009
:10C7300008F0FDFA032805DDA06808F0F4FC0368A2
:10C74000DB6898470EA808F060FA2F2004ABC018E9
:10C7500008F05BFA362004ABC01808F056FA3D200A
:10C76000042504ABC01808F050FA0EAB0A93A06879
:10C7700004AB5D7708F0D7FC03680AA91B699847EA
:10C78000A06808F0C8FC03680AA95B6D9847A06818
:10C7900008F0C1FC03680021DB6D9847A06808F031
:10C7A000BAFC036802219B6D984700212000FFF727
:10C7B000FBFE182009F095FFA16800F055FA374BF1
:10C7C000374A1B68A1680393364B15A81B680026DF
:10C7D0000293354B0CAF1B680193069B1B685B19DA
:10C7E0000093324B12681B68FFF7B4FD302009F04C
:10C7F00078FF079AA16800F0F7FAA06808F08BFCB0
:10C80000036839009B6A9847294BBE80A0680C9347
:10C8100008F081FC03683900DB6A98472900A068AA
:10C8200008F04FFA099A09219378A068521908F084
:10C830005BFAA06808F06FFC32210671A068FFF770
:10C840006BFD04AB1B7FB34204D0A06808F063FC0F
:10C8500008F021FA09A806F07DFE95239B009D446F
:10C86000F0BD036107E703611FE7036139E7C046D5
:10C87000ACFDFFFF4A790200AD4B02006DC501001F
:10C88000BB4B020009C00100C94B0200F74B02007C
:10C89000D74B0200B5C80100E9C8010040260020BE
:10C8A0003C26002028210020382600202C210020B2
:10C8B0000800100013B506226846FCF775FD094B09
:10C8C0001C68002C0AD0694601A806F09AFE2000D8
:10C8D00001A908F04DFA01A806F03CFE684606F0F2
:10C8E00039FE13BD44260020002373B501AE0C00B1
:10C8F00031000500019302F019FD002802D1B27841
:10C90000064B1A70064B1868002806D06142614138
:10C91000044BC9B21D8008F033FA73BDA02100207A
:10C9200044260020C028002030B5284CA9B06A2237
:10C930000D000DA8210009F007FF0DA903A8FCF7C1
:10C9400091FD03A906A806F0E0FE01230193013B37
:10C95000FF3B00930533FF33642206A92800FDF74F
:10C960006BFF06A806F0C4FE210019226A3106A852
:10C9700009F0EAFE05220024110006AB04A806F027
:10C98000EBFE04A905A806F0C0FE01940094230064
:10C99000220005A92800FDF793FE05A806F0A8FED1
:10C9A00021002800FDF776FF05340520FCF788FA02
:10C9B000FF2CF5D1FA208000FCF782FA04A806F0DB
:10C9C00097FE03A806F094FE29B030BDDA77020086
:10C9D000F0B59C4B95B005921A68082304000391AA
:10C9E000D16C06A80B43D3649749FCF79BFC97498D
:10C9F00007A8FCF797FC220000250DAE30001C3282
:10CA000006A906F025FE07AA310008A806F020FEB8
:10CA1000300006F09FFD631CDD77A06808F07BFB0B
:10CA200003680BAF5B699847300008F0EEF82B20E5
:10CA300004ABC01808F0E9F8322004ABC01808F0C5
:10CA4000E4F8392004ABC01808F0DFF88023DB00DD
:10CA5000BB80A0680B9608F05EFB036839005B6D35
:10CA60009847A06808F057FB036829009B6D98471A
:10CA7000A06808F050FB070006000A371F222900B3
:10CA8000380009F07DFEFD77300008F0FBF8062144
:10CA9000A06808F016F9089A09219378A068043272
:10CAA00008F022F9A06808F036FBC8210571A068DB
:10CAB000FFF732FCA06808F02EFBFF272E0005814F
:10CAC000A06808F028FB08F0E6F80398FDF7FCFCE6
:10CAD0002000FCF75BF903992000FFF725FF03997D
:10CAE000200008F060F90495012563691D402DD0F0
:10CAF000574909A8FCF734FD09A90AA806F005FE64
:10CB000000220AA91300019200920398FDF7D8FDB4
:10CB10000AA806F0EDFD049B002B42D1043F282F0C
:10CB200041DD0025FE2F00DC049D059806F0E0FFA6
:10CB3000002806D0012362699A431300042213439C
:10CB40006361002609A806F0D3FD049504226369F9
:10CB5000134233D0FF210398C826FDF79BFE002522
:10CB6000B600A36902229B5EAB4222DD200029B2FF
:10CB7000183006F083FD0023010003981A0074307A
:10CB8000FCF73EFD3000FCF79BF9039807F0B7FB7C
:10CB9000C820FCF795F902226369134209D10135D7
:10CBA000DFE70437BBE7039807F0A9FB002FBCDDE4
:10CBB000BAE7FA208000FCF783F9002602236569B2
:10CBC0001D421CD006331D4024D0224909A8FCF781
:10CBD000C7FC09A90AA806F098FD00220AA901923B
:10CBE000009213000398FDF76BFD0AA806F080FD84
:10CBF0001948FCF765F909A806F07AFD174E64207C
:10CC0000FCF75EF9164B01369E4200DC6CE706F03D
:10CC10004CFB69E7134909A8FCF7A2FC09A90AA87B
:10CC200006F073FD2B002A000AA9019500950398D0
:10CC3000FDF746FD0AA806F05BFD09A806F058FDC1
:10CC4000DDE7C046C8250020717802008178020027
:10CC500083780200C8780200983A00008C0A00002D
:10CC60008B0A0000057902000022594BF0B5083309
:10CC7000060003600F001000A9B0B1600BAB99185B
:10CC800001324870102AFAD10F3A524C1A700E3203
:10CC9000105D991A0874013AFAD2997B5A7B0902FD
:10CCA0000A4331000C31039125211B7813AD2B7001
:10CCB00002ABC918452302A81B186A82180010226B
:10CCC00009F042FD039B64216B610123002402AA49
:10CCD0002B7752181993093313701DAB1C706D23F9
:10CCE00002AA9B181C706E2321009B181EA80C2200
:10CCF000EC836C621C7009F043FD374B0C22210061
:10CD000023A8AB63EC6309F03BFD344B02AAEB6450
:10CD100046239B180322DA7722002C65059534738D
:10CD200006AD2B1901345A70102CFAD101232C486E
:10CD30002B700E33195CEA1A1174013BFAD21121DF
:10CD40002520AA7B6B7B12020BAC13432A786382EB
:10CD500002ABC9182270C018102209F0F5FC01239B
:10CD6000237505ABA36100233800A38308F0D7F92E
:10CD7000036821001B68984713ABDB8BB068B38254
:10CD800008F0CDF9002203680092B18A039ADC68AA
:10CD90000123A047B06808F0C2F90700142009F089
:10CDA000A0FC0022012304000261069240C0083268
:10CDB0002900079309F0C8FC0A4BE360BB69002B0C
:10CDC00003D13000BC6129B0F0BD2361F9E7C04652
:10CDD000446E02005E7902009F4B0200914B0200FC
:10CDE0006E790200074E0200F0B500260400724B77
:10CDF000DDB0083303608160C260868086713200D6
:10CE00006E4947A808F09FF8230014330125042732
:10CE100008931223009704950193089A330047A9B9
:10CE2000039602961DA8FFF731FA3200644947A81D
:10CE300008F089F80C2322000097103215AF0495F2
:10CE4000019347A933000396029632A8FFF71EFA12
:10CE500032005C49380008F076F821001C31099155
:10CE60000423082104950191009339003300099AA5
:10CE70000396029647A8FFF709FA32005249380094
:10CE800008F061F8542009F02CFC21001222042340
:10CE9000183107910495019200930A00330039007C
:10CEA000039602960690FFF7F1F9069A474B100099
:10CEB000A262D4620AA9082230300A930B9609F0C4
:10CEC00043FC434B069A09999363293215702661F6
:10CED0000422E661079809F037FC042207990898B4
:10CEE00009F032FC6622032304A95218D377BA2230
:10CEF0005218D377872252005218D377069A3549B1
:10CF00000232D3771DAA0C9232AA0D9247AA0E9232
:10CF1000069AA6850F9210A8320008F014F8302166
:10CF2000452004AA52181378123104AA3B705218F3
:10CF3000138811397B8204AB1022C918C01809F07C
:10CF400003FC04230CADA0683B75BD61BE8308F0F3
:10CF5000E6F8036839001B689847822204AB9B18E7
:10CF60001B885432238404AB9B181B885432A3843F
:10CF700004AB9B181B88A068638408F0D0F80700F6
:10CF8000142009F0AEFB0500134B0661082210C007
:10CF900010A91093119609F0D7FB104BEB60BB69F9
:10CFA000B34206D1BD612000FBF7F0FE20005DB06A
:10CFB000F0BD2B61F6E7C046506E02009E7902007C
:10CFC0007E7902008E790200AE790200194F0200CC
:10CFD000854E0200BE79020049D00100AF4E02002A
:10CFE000F0B504000E00150085B01F000CAB1B88C7
:10CFF0001030019306F04FFB26806580182009F061
:10D0000070FB02AE050033000AAA03CA03C32F60F7
:10D010002800082700213A000C3009F0B1FB3A0043
:10D020003100281D09F090FB064B02226B612000A5
:10D0300000230199A5600A43E360A2802362636232
:10D0400005B0F0BDD94E0200F0B50B898DB0059347
:10D05000CB68050004934B88828C9A420ED1049CC5
:10D06000049B059A9B181B1B032B39DD62882188C2
:10D07000012308A806F019FB0434F1E7428C9A4218
:10D080002ED1049C049B059A9B181B1B032B27DDA8
:10D090002388282006936388EF680793114B089331
:10D0A0000023099309F01DFBC0236A460600029382
:10D0B00008AB03CB03C22B000699079A3000FFF799
:10D0C0008FFF3B6831005B6838009847002805D027
:10D0D000300006F0F5F9300009F0F8FA0434D1E731
:10D0E0000DB0F0BD974F020070B5040090B080689D
:10D0F00007F04CFF022101401AD1A38D002B17D05D
:10D100000C4B6A4604931023E568A18505910293B0
:10D1100004AB41CB41C20A00230006A8FFF760FF21
:10D120002B6806A99B682800984706A806F0C8F94E
:10D1300010B070BD974F0200002815D0006041600C
:10D140008260C360046145618661C76144460462D0
:10D150004C464462544684625C46C462644604633E
:10D160006E46466374468463002A06D0C46B043C52
:10D17000043A25681560B442F9D18C6BA6464E6B13
:10D18000B546002B06D0CC6B043C043B1D682560E3
:10D19000B442F9D10C6BA446CC6AA3468C6AA24671
:10D1A0004C6AA1460C6AA046CF698E694D690C692C
:10D1B000CB688A680868496870470060416082608F
:10D1C000C360046145618661C761444604624C46A0
:10D1D0004462544684625C46C462644604636E469C
:10D1E000466374468463C46B043C043925680D604F
:10D1F000B442F9D1C769866945690469704700601E
:10D2000041608260C360046145618661C7614446D4
:10D2100004624C464462544684625C46C46264467E
:10D2200004636C4644637446846304697047846B8A
:10D23000A646446BA546046BA446C46AA346846A0A
:10D24000A246446AA146046AA046C7698669456940
:10D250000469C368826800684168704710B5041E9D
:10D260000CD009F0DBFA431EE3189C4208D2227866
:10D270001978013B21705A700134F6E7014810BD5E
:10D280000020FCE717FCFFFFF0B585B002900C1EF4
:10D290002AD00023C217161A56400193019B300072
:10D2A0005D1C63190A215F1E039303F06BFF494263
:10D2B0003031397030000A2103F07EFE474206000B
:10D2C000002F0FD1029B002B04DA2D23019D039A1E
:10D2D00002351370002320006355FFF7BFFF3800AD
:10D2E00005B0F0BD0195D9E7004FF8E717FCFFFF47
:10D2F0000268084B406810B5C018C0001018030041
:10D300009A4205D81C688C4202D31800083BF7E704
:10D3100010BDC046FFFFFF1F70B5002817D1114D8B
:10D320002E68002E11D1083009F0DBF90660466046
:10D330000D4E04003368002B02D108F08CFB3060E6
:10D3400023682C609B00F3586360286870BD01223D
:10D35000064907480B681340F8D1026043600A6031
:10D36000F4E7C0464C26002058260020482600201E
:10D3700050260020002370B50400016043609942EC
:10D380000AD1064D2B68002B02D108F064FB2860FF
:10D3900023689B00EB586360200070BD5826002076
:10D3A000436810B50400002B02D1044808F0EDFFDB
:10D3B000606803681B69984710BDC046CE790200BB
:10D3C000436810B50400002B02D1044808F0DDFFCB
:10D3D000606803689B69984710BDC046CE7902001B
:10D3E000436810B50400002B02D1044808F0CDFFBB
:10D3F000606803685B6A984710BDC046CE7902003A
:10D4000010B5040002F03CFC034B1B68002B01D05C
:10D410002000984710BDC04660260020F0B58BB0B4
:10D42000050001F0C3FD002000F0B2FD0368070015
:10D430001B6998473B6804009B69380098473B6824
:10D4400006005B6A380098470300288810380B28CC
:10D4500061D803F01DFD063D6060605A6060606643
:10D460006078AF882000390008F09EFC22006B7BBA
:10D47000583201931378A8799C46022361460B43E6
:10D48000137004AB1F80012304AA93701300D070A3
:10D49000019AE91D9A722B000622163305A80993FA
:10D4A00009F052F929000B2004AB06220E31C018F6
:10D4B00009F04AF994346368A360A06800282AD070
:10D4C000C36804A99847A368002BF4D01B69F3E74D
:10D4D00020002F49AF8808F067FC22000220583254
:10D4E0001378A9798343137004AB1F809970A0341B
:10D4F0006368A360A06800280DD0C36804A998479A
:10D50000A368002BF4D01B69F3E75B69A888A91D09
:10D51000002B00D098472900300007F058FF0BB0CF
:10D52000F0BD636E002BF6D0AF79A366A06E002825
:10D53000F1D0C36839009847A36E002B01D1636E08
:10D54000F3E71B69F1E7012269460D27AB7BEF5733
:10D550001A4001925A07920FDB080A720B730622D7
:10D56000E91D04A809F0F0F8019A04ABDA716A46E3
:10D57000127A9F711A726A46127B20005A722B002F
:10D580000F3307938C348030236804A99847C2E78F
:10D59000FFFF00000723D72802D9024B18600023A1
:10D5A000180070475C260020014B18607047C04689
:10D5B000602600201FB58022A323D205DB00D358AC
:10D5C0000820DB0700D405301C4B48221C4901F021
:10D5D00053FF00280AD080B2002807D1BFF34F8F35
:10D5E000184B194ADA60BFF34F8FFEE7002302A8F9
:10D5F000029301330370154B1B68436007F09BFDDA
:10D60000002802D0072005B000BD684607F091FD54
:10D610000028F7D1694607F08AFD0028F2D10C48AE
:10D6200001F05AFF80B20028EDD10A4801F05EFFF8
:10D6300080B20028E7D100F0D7F9E4E73B510200BF
:10D640006426002000ED00E00400FA055C260020BE
:10D650001DD4010001D4010080B2002807D1BFF31E
:10D660004F8F034B034ADA60BFF34F8FFEE77047DB
:10D6700000ED00E00400FA0513B504680093A46807
:10D6800013000A000149A04716BDC046FFFF000075
:10D6900037B506AC2578046801950093246913001A
:10D6A0000A000149A0473EBDFFFF0000F0B587B06A
:10D6B0000D00002469466F4616004C800DAA0CA987
:10D6C0000988127839800193A2421BD10100447964
:10D6D000F83194420DD908310F00083F3F88B74216
:10D6E0001BD130212032920012580132D27F0A42DF
:10D6F00015D16A463100280007F027FD002808D11F
:10D70000062407E06A463100280007F01EFD0028C5
:10D7100000D00324200007B0F0BD0132D9E710216A
:10D720000A4051424A41002002ACE3600CABA360C6
:10D73000174B01322680A270A0809D4207D100F0D5
:10D7400027FC03681B69984708F031FB050021009E
:10D75000280007F0FEFC002482B2A242DAD0112A8F
:10D7600013D00BD8082ACBD06A463100280007F026
:10D77000ECFC05240028CDD0023CCBE7054B9A42B7
:10D7800003D0054B9A42EFD1BAE70524C2E7C04661
:10D79000FFFF00000330000001340000F0B5050079
:10D7A00099B008002E240C9100F0D4FD06ABE418CB
:10D7B0001290220012A9012007F0C5FC002802D017
:10D7C000032019B0F0BD23880C9A0B9093830C9B17
:10D7D0000B9A1B7D934200D8C6E06B791D2B01D9B3
:10D7E0000720EEE70C9B9B690D930B9B0D9A9B000A
:10D7F0009C586369002B07D1638B002B04D1631CF9
:10D80000DB7F022B00D1AAE0200000F0A3FD230063
:10D810000026283312900E960D960F930F9B1B78BF
:10D82000B34221D9626AB3009F58342206AB9B18D9
:10D8300000221A700023002113AAD218013351705C
:10D84000102BF8D1462206AB9B184A4A13A9380080
:10D850001A8007F006FD002803D07B690D937B8BAF
:10D860000E930136F6B2D9E76979A31C1F31C900BE
:10D870006918621CDB7FD27F089121002A31097868
:10D880000020079121002931097806910E99059110
:10D890000D990491217F0391218B0291618B01915C
:10D8A0006169009112A908F0A2FA002800D087E768
:10D8B0006B7907001A00203292001F335451DB00AD
:10D8C0005B5BE3836B7901336B71230028331B7837
:10D8D000BB4244D98E239B00EB5C132B00D97FE71E
:10D8E000626ABB009E580023180013A90B70CA1867
:10D8F00001335070102BFAD11E4B30004B8207F0D1
:10D90000B0FC0D90002827D1300000F023FD8E21BF
:10D9100089006A5C738B1E32FF325200AA18029291
:10D92000327F12900192328B12A9009272690D9887
:10D9300000F060FD002800D042E78E2189006A5C7B
:10D94000531CDBB26B541D337A32FF3392005B0001
:10D950005651EB185B88F3830137FFB2B5E70B989C
:10D960000130C3B20B9332E72B79002001332B71C6
:10D9700027E7C0460129000070B50C220D000021E8
:10D98000040008F0FDFE00232361024B2560200007
:10D99000E36070BD8B51020070B5050007F07FFC9D
:10D9A00004000620002C1CD12800782221008030A1
:10D9B00008F0E6FE2800E93050222100FF3008F090
:10D9C000DFFE280008222100F83008F0D9FE054BC0
:10D9D0002822E818210008F0D3FE8E2320009B00A7
:10D9E000EC5470BD3A0200001FB5002302ACA380C6
:10D9F000104B01A80293C8235B00E380803BFF3BF0
:10DA0000037005220C4907F0FEFD80B200280FD1FB
:10DA10008020800007F0F3FD80B2002808D12000AC
:10DA200007F0EFFD80B2002802D107F0E6FD80B2DA
:10DA300004B010BD28009001F17902000048704741
:10DA4000FFFF0000F0B597B00593036807AD1B68B2
:10DA50000491039311002B00060091C991C3002487
:10DA6000D36821000C220CA8EB602C6108F088FE22
:10DA700022000B4B10940F9311AB1C701919013439
:10DA80004A70102CFAD15A820193059B2A00009308
:10DA900004990CAB3000039CA04717B0F0BDC04602
:10DAA0000F57020070B5FC30046C0500002C0DD13E
:10DAB000242008F016FE064B44608361054B846009
:10DAC000C46004614461C46103602864286C70BD53
:10DAD0006C6F02005470020070B5FC30C56B04001E
